{
  "_format": "hh-sol-artifact-1",
  "contractName": "PremiumPool",
  "sourceName": "contracts/PremiumPool.sol",
  "abi": [
    {
      "inputs": [
        {
          "internalType": "address",
          "name": "stablecoinAddress",
          "type": "address"
        }
      ],
      "stateMutability": "nonpayable",
      "type": "constructor"
    },
    {
      "inputs": [],
      "name": "AccessControlBadConfirmation",
      "type": "error"
    },
    {
      "inputs": [
        {
          "internalType": "address",
          "name": "account",
          "type": "address"
        },
        {
          "internalType": "bytes32",
          "name": "neededRole",
          "type": "bytes32"
        }
      ],
      "name": "AccessControlUnauthorizedAccount",
      "type": "error"
    },
    {
      "inputs": [],
      "name": "ReentrancyGuardReentrantCall",
      "type": "error"
    },
    {
      "anonymous": false,
      "inputs": [
        {
          "indexed": true,
          "internalType": "address",
          "name": "investor",
          "type": "address"
        },
        {
          "indexed": false,
          "internalType": "uint256",
          "name": "amount",
          "type": "uint256"
        },
        {
          "indexed": true,
          "internalType": "uint256",
          "name": "policyId",
          "type": "uint256"
        },
        {
          "indexed": false,
          "internalType": "string",
          "name": "triggerType",
          "type": "string"
        }
      ],
      "name": "PayoutExecuted",
      "type": "event"
    },
    {
      "anonymous": false,
      "inputs": [
        {
          "indexed": true,
          "internalType": "address",
          "name": "policyRegistry",
          "type": "address"
        }
      ],
      "name": "PoolLinked",
      "type": "event"
    },
    {
      "anonymous": false,
      "inputs": [
        {
          "indexed": false,
          "internalType": "uint256",
          "name": "amount",
          "type": "uint256"
        }
      ],
      "name": "PremiumRecorded",
      "type": "event"
    },
    {
      "anonymous": false,
      "inputs": [
        {
          "indexed": true,
          "internalType": "bytes32",
          "name": "role",
          "type": "bytes32"
        },
        {
          "indexed": true,
          "internalType": "bytes32",
          "name": "previousAdminRole",
          "type": "bytes32"
        },
        {
          "indexed": true,
          "internalType": "bytes32",
          "name": "newAdminRole",
          "type": "bytes32"
        }
      ],
      "name": "RoleAdminChanged",
      "type": "event"
    },
    {
      "anonymous": false,
      "inputs": [
        {
          "indexed": true,
          "internalType": "bytes32",
          "name": "role",
          "type": "bytes32"
        },
        {
          "indexed": true,
          "internalType": "address",
          "name": "account",
          "type": "address"
        },
        {
          "indexed": true,
          "internalType": "address",
          "name": "sender",
          "type": "address"
        }
      ],
      "name": "RoleGranted",
      "type": "event"
    },
    {
      "anonymous": false,
      "inputs": [
        {
          "indexed": true,
          "internalType": "bytes32",
          "name": "role",
          "type": "bytes32"
        },
        {
          "indexed": true,
          "internalType": "address",
          "name": "account",
          "type": "address"
        },
        {
          "indexed": true,
          "internalType": "address",
          "name": "sender",
          "type": "address"
        }
      ],
      "name": "RoleRevoked",
      "type": "event"
    },
    {
      "inputs": [],
      "name": "ADMIN_ROLE",
      "outputs": [
        {
          "internalType": "bytes32",
          "name": "",
          "type": "bytes32"
        }
      ],
      "stateMutability": "view",
      "type": "function"
    },
    {
      "inputs": [],
      "name": "DEFAULT_ADMIN_ROLE",
      "outputs": [
        {
          "internalType": "bytes32",
          "name": "",
          "type": "bytes32"
        }
      ],
      "stateMutability": "view",
      "type": "function"
    },
    {
      "inputs": [],
      "name": "ORACLE_ROLE",
      "outputs": [
        {
          "internalType": "bytes32",
          "name": "",
          "type": "bytes32"
        }
      ],
      "stateMutability": "view",
      "type": "function"
    },
    {
      "inputs": [],
      "name": "REGISTRY_ROLE",
      "outputs": [
        {
          "internalType": "bytes32",
          "name": "",
          "type": "bytes32"
        }
      ],
      "stateMutability": "view",
      "type": "function"
    },
    {
      "inputs": [
        {
          "internalType": "address",
          "name": "investor",
          "type": "address"
        },
        {
          "internalType": "uint256",
          "name": "amount",
          "type": "uint256"
        },
        {
          "internalType": "uint256",
          "name": "policyId",
          "type": "uint256"
        },
        {
          "internalType": "string",
          "name": "triggerType",
          "type": "string"
        }
      ],
      "name": "executePayout",
      "outputs": [],
      "stateMutability": "nonpayable",
      "type": "function"
    },
    {
      "inputs": [],
      "name": "getAvailableLiquidity",
      "outputs": [
        {
          "internalType": "uint256",
          "name": "",
          "type": "uint256"
        }
      ],
      "stateMutability": "view",
      "type": "function"
    },
    {
      "inputs": [],
      "name": "getPoolBalance",
      "outputs": [
        {
          "internalType": "uint256",
          "name": "",
          "type": "uint256"
        }
      ],
      "stateMutability": "view",
      "type": "function"
    },
    {
      "inputs": [],
      "name": "getReserveRatio",
      "outputs": [
        {
          "internalType": "uint256",
          "name": "",
          "type": "uint256"
        }
      ],
      "stateMutability": "view",
      "type": "function"
    },
    {
      "inputs": [
        {
          "internalType": "bytes32",
          "name": "role",
          "type": "bytes32"
        }
      ],
      "name": "getRoleAdmin",
      "outputs": [
        {
          "internalType": "bytes32",
          "name": "",
          "type": "bytes32"
        }
      ],
      "stateMutability": "view",
      "type": "function"
    },
    {
      "inputs": [],
      "name": "getTotalPayouts",
      "outputs": [
        {
          "internalType": "uint256",
          "name": "",
          "type": "uint256"
        }
      ],
      "stateMutability": "view",
      "type": "function"
    },
    {
      "inputs": [],
      "name": "getTotalPremiums",
      "outputs": [
        {
          "internalType": "uint256",
          "name": "",
          "type": "uint256"
        }
      ],
      "stateMutability": "view",
      "type": "function"
    },
    {
      "inputs": [
        {
          "internalType": "bytes32",
          "name": "role",
          "type": "bytes32"
        },
        {
          "internalType": "address",
          "name": "account",
          "type": "address"
        }
      ],
      "name": "grantRole",
      "outputs": [],
      "stateMutability": "nonpayable",
      "type": "function"
    },
    {
      "inputs": [
        {
          "internalType": "bytes32",
          "name": "role",
          "type": "bytes32"
        },
        {
          "internalType": "address",
          "name": "account",
          "type": "address"
        }
      ],
      "name": "hasRole",
      "outputs": [
        {
          "internalType": "bool",
          "name": "",
          "type": "bool"
        }
      ],
      "stateMutability": "view",
      "type": "function"
    },
    {
      "inputs": [
        {
          "internalType": "address",
          "name": "registry",
          "type": "address"
        }
      ],
      "name": "linkPolicyRegistry",
      "outputs": [],
      "stateMutability": "nonpayable",
      "type": "function"
    },
    {
      "inputs": [],
      "name": "policyRegistry",
      "outputs": [
        {
          "internalType": "address",
          "name": "",
          "type": "address"
        }
      ],
      "stateMutability": "view",
      "type": "function"
    },
    {
      "inputs": [
        {
          "internalType": "uint256",
          "name": "amount",
          "type": "uint256"
        }
      ],
      "name": "recordPremium",
      "outputs": [],
      "stateMutability": "nonpayable",
      "type": "function"
    },
    {
      "inputs": [
        {
          "internalType": "bytes32",
          "name": "role",
          "type": "bytes32"
        },
        {
          "internalType": "address",
          "name": "callerConfirmation",
          "type": "address"
        }
      ],
      "name": "renounceRole",
      "outputs": [],
      "stateMutability": "nonpayable",
      "type": "function"
    },
    {
      "inputs": [
        {
          "internalType": "bytes32",
          "name": "role",
          "type": "bytes32"
        },
        {
          "internalType": "address",
          "name": "account",
          "type": "address"
        }
      ],
      "name": "revokeRole",
      "outputs": [],
      "stateMutability": "nonpayable",
      "type": "function"
    },
    {
      "inputs": [],
      "name": "stablecoin",
      "outputs": [
        {
          "internalType": "contract IERC20",
          "name": "",
          "type": "address"
        }
      ],
      "stateMutability": "view",
      "type": "function"
    },
    {
      "inputs": [
        {
          "internalType": "bytes4",
          "name": "interfaceId",
          "type": "bytes4"
        }
      ],
      "name": "supportsInterface",
      "outputs": [
        {
          "internalType": "bool",
          "name": "",
          "type": "bool"
        }
      ],
      "stateMutability": "view",
      "type": "function"
    },
    {
      "inputs": [],
      "name": "totalPayouts",
      "outputs": [
        {
          "internalType": "uint256",
          "name": "",
          "type": "uint256"
        }
      ],
      "stateMutability": "view",
      "type": "function"
    },
    {
      "inputs": [],
      "name": "totalPremiums",
      "outputs": [
        {
          "internalType": "uint256",
          "name": "",
          "type": "uint256"
        }
      ],
      "stateMutability": "view",
      "type": "function"
    }
  ],
  "bytecode": "0x60a060405234801561001057600080fd5b50604051610f1b380380610f1b83398101604081905261002f91610149565b60017f9b779b17422d0df92223018b32b4d1fa46e071723d6817e2486d003becc55f00556001600160a01b03811660805261006b60003361009d565b506100967fa49807205ce4d355092ef5a8a18f56e8913cf4a201fbe287825b095693c217753361009d565b5050610179565b6000828152602081815260408083206001600160a01b038516845290915281205460ff1661013f576000838152602081815260408083206001600160a01b03861684529091529020805460ff191660011790556100f73390565b6001600160a01b0316826001600160a01b0316847f2f8788117e7eff1d82e926ec794901d17c78024a50270940304540a733656f0d60405160405180910390a4506001610143565b5060005b92915050565b60006020828403121561015b57600080fd5b81516001600160a01b038116811461017257600080fd5b9392505050565b608051610d6b6101b060003960008181610306015281816103a80152818161049f0152818161065501526108d00152610d6b6000f3fe608060405234801561001057600080fd5b50600436106101425760003560e01c8063590bf72c116100b85780639b745aec1161007c5780639b745aec146102d6578063a217fddf146102de578063abd70aa2146102d6578063b81a64f9146102e6578063d547741f146102ee578063e9cbd8221461030157600080fd5b8063590bf72c1461026d5780635bda158414610280578063626347641461028957806375b238fc1461029c57806391d14854146102c357600080fd5b8063248a9ca31161010a578063248a9ca3146101ec5780632f2ff15d1461020f57806336568abe146102225780634089b1701461023557806342f1e8791461023e57806356b6d0d51461026557600080fd5b806301ffc9a7146101475780630427aa611461016f57806307e2cea514610184578063195f4807146101b95780631c4dd7d0146101c1575b600080fd5b61015a610155366004610b21565b610328565b60405190151581526020015b60405180910390f35b61018261017d366004610b6e565b61035f565b005b6101ab7f68e79a7bf1e0bc45d0a330c573bc367f9cf464fd326078812f301165fbda4ef181565b604051908152602001610166565b6003546101ab565b6001546101d4906001600160a01b031681565b6040516001600160a01b039091168152602001610166565b6101ab6101fa366004610c02565b60009081526020819052604090206001015490565b61018261021d366004610c1b565b6105c8565b610182610230366004610c1b565b6105f3565b6101ab60035481565b6101ab7fc2979137d1774e40fe2638d355bf7a7b092be4c67f242aad1655e1e27f9df9cc81565b6101ab61062b565b61018261027b366004610c47565b6106e2565b6101ab60025481565b610182610297366004610c02565b6107d3565b6101ab7fa49807205ce4d355092ef5a8a18f56e8913cf4a201fbe287825b095693c2177581565b61015a6102d1366004610c1b565b61088f565b6101ab6108b8565b6101ab600081565b6002546101ab565b6101826102fc366004610c1b565b610943565b6101d47f000000000000000000000000000000000000000000000000000000000000000081565b60006001600160e01b03198216637965db0b60e01b148061035957506301ffc9a760e01b6001600160e01b03198316145b92915050565b7f68e79a7bf1e0bc45d0a330c573bc367f9cf464fd326078812f301165fbda4ef161038981610968565b610391610975565b6040516370a0823160e01b815230600482015285907f00000000000000000000000000000000000000000000000000000000000000006001600160a01b0316906370a0823190602401602060405180830381865afa1580156103f7573d6000803e3d6000fd5b505050506040513d601f19601f8201168201806040525081019061041b9190610c62565b10156104625760405162461bcd60e51b81526020600482015260116024820152701a5b9cdd59999a58da595b9d081c1bdbdb607a1b60448201526064015b60405180910390fd5b84600360008282546104749190610c91565b909155505060405163a9059cbb60e01b81526001600160a01b038781166004830152602482018790527f0000000000000000000000000000000000000000000000000000000000000000169063a9059cbb906044016020604051808303816000875af11580156104e8573d6000803e3d6000fd5b505050506040513d601f19601f8201168201806040525081019061050c9190610ca4565b6105515760405162461bcd60e51b81526020600482015260166024820152751c185e5bdd5d081d1c985b9cd9995c8819985a5b195960521b6044820152606401610459565b83866001600160a01b03167ffa5a3c22945fc9d6b0a48379cc7fec4445898d8ba8d17c5c9540fb3f4c3a3ef087868660405161058f93929190610cc6565b60405180910390a36105c060017f9b779b17422d0df92223018b32b4d1fa46e071723d6817e2486d003becc55f0055565b505050505050565b6000828152602081905260409020600101546105e381610968565b6105ed83836109a3565b50505050565b6001600160a01b038116331461061c5760405163334bd91960e11b815260040160405180910390fd5b6106268282610a35565b505050565b600060025460000361063d5750600090565b6002546040516370a0823160e01b81523060048201527f00000000000000000000000000000000000000000000000000000000000000006001600160a01b0316906370a0823190602401602060405180830381865afa1580156106a4573d6000803e3d6000fd5b505050506040513d601f19601f820116820180604052508101906106c89190610c62565b6106d3906064610cfc565b6106dd9190610d13565b905090565b7fa49807205ce4d355092ef5a8a18f56e8913cf4a201fbe287825b095693c2177561070c81610968565b6001600160a01b0382166107555760405162461bcd60e51b815260206004820152601060248201526f696e76616c696420726567697374727960801b6044820152606401610459565b600180546001600160a01b0319166001600160a01b03841617905561079a7fc2979137d1774e40fe2638d355bf7a7b092be4c67f242aad1655e1e27f9df9cc836109a3565b506040516001600160a01b038316907f2d3e7e3918b7c3b6c2e9c0273007cb5b81a9ed3b7678579c3a90ddaa95ae2cfb90600090a25050565b7fc2979137d1774e40fe2638d355bf7a7b092be4c67f242aad1655e1e27f9df9cc6107fd81610968565b600082116108415760405162461bcd60e51b81526020600482015260116024820152700616d6f756e74206d757374206265203e3607c1b6044820152606401610459565b81600260008282546108539190610c91565b90915550506040518281527fdbe95211e6c488dd9ca635d2b469705c2bfd785fbf9f61537f3cd343425bad2c9060200160405180910390a15050565b6000918252602082815260408084206001600160a01b0393909316845291905290205460ff1690565b6040516370a0823160e01b81523060048201526000907f00000000000000000000000000000000000000000000000000000000000000006001600160a01b0316906370a0823190602401602060405180830381865afa15801561091f573d6000803e3d6000fd5b505050506040513d601f19601f820116820180604052508101906106dd9190610c62565b60008281526020819052604090206001015461095e81610968565b6105ed8383610a35565b6109728133610aa0565b50565b61097d610add565b60027f9b779b17422d0df92223018b32b4d1fa46e071723d6817e2486d003becc55f0055565b60006109af838361088f565b610a2d576000838152602081815260408083206001600160a01b03861684529091529020805460ff191660011790556109e53390565b6001600160a01b0316826001600160a01b0316847f2f8788117e7eff1d82e926ec794901d17c78024a50270940304540a733656f0d60405160405180910390a4506001610359565b506000610359565b6000610a41838361088f565b15610a2d576000838152602081815260408083206001600160a01b0386168085529252808320805460ff1916905551339286917ff6391f5c32d9c69d2a47ea670b442974b53935d1edc7fd64eb21e047a839171b9190a4506001610359565b610aaa828261088f565b610ad95760405163e2517d3f60e01b81526001600160a01b038216600482015260248101839052604401610459565b5050565b7f9b779b17422d0df92223018b32b4d1fa46e071723d6817e2486d003becc55f0054600203610b1f57604051633ee5aeb560e01b815260040160405180910390fd5b565b600060208284031215610b3357600080fd5b81356001600160e01b031981168114610b4b57600080fd5b9392505050565b80356001600160a01b0381168114610b6957600080fd5b919050565b600080600080600060808688031215610b8657600080fd5b610b8f86610b52565b94506020860135935060408601359250606086013567ffffffffffffffff80821115610bba57600080fd5b818801915088601f830112610bce57600080fd5b813581811115610bdd57600080fd5b896020828501011115610bef57600080fd5b9699959850939650602001949392505050565b600060208284031215610c1457600080fd5b5035919050565b60008060408385031215610c2e57600080fd5b82359150610c3e60208401610b52565b90509250929050565b600060208284031215610c5957600080fd5b610b4b82610b52565b600060208284031215610c7457600080fd5b5051919050565b634e487b7160e01b600052601160045260246000fd5b8082018082111561035957610359610c7b565b600060208284031215610cb657600080fd5b81518015158114610b4b57600080fd5b83815260406020820152816040820152818360608301376000818301606090810191909152601f909201601f1916010192915050565b808202811582820484141761035957610359610c7b565b600082610d3057634e487b7160e01b600052601260045260246000fd5b50049056fea26469706673582212202b3068d0dcd3cd6d84a7c21026f6dad02a484916270f4f241ee163cfae73dda364736f6c63430008180033",
  "linkReferences": {},
  "deployedLinkReferences": {}
}