{
  "_format": "hh-sol-artifact-1",
  "contractName": "PolicyRegistry",
  "sourceName": "contracts/PolicyRegistry.sol",
  "abi": [
    {
      "inputs": [
        {
          "internalType": "address",
          "name": "stablecoinAddress",
          "type": "address"
        }
      ],
      "stateMutability": "nonpayable",
      "type": "constructor"
    },
    {
      "inputs": [],
      "name": "AccessControlBadConfirmation",
      "type": "error"
    },
    {
      "inputs": [
        {
          "internalType": "address",
          "name": "account",
          "type": "address"
        },
        {
          "internalType": "bytes32",
          "name": "neededRole",
          "type": "bytes32"
        }
      ],
      "name": "AccessControlUnauthorizedAccount",
      "type": "error"
    },
    {
      "inputs": [],
      "name": "ReentrancyGuardReentrantCall",
      "type": "error"
    },
    {
      "anonymous": false,
      "inputs": [
        {
          "indexed": true,
          "internalType": "uint256",
          "name": "policyId",
          "type": "uint256"
        },
        {
          "indexed": true,
          "internalType": "address",
          "name": "investor",
          "type": "address"
        },
        {
          "indexed": false,
          "internalType": "uint256",
          "name": "coverageAmount",
          "type": "uint256"
        },
        {
          "indexed": false,
          "internalType": "uint256",
          "name": "premiumAmount",
          "type": "uint256"
        },
        {
          "indexed": false,
          "internalType": "string",
          "name": "triggerType",
          "type": "string"
        }
      ],
      "name": "PolicyCreated",
      "type": "event"
    },
    {
      "anonymous": false,
      "inputs": [
        {
          "indexed": true,
          "internalType": "uint256",
          "name": "policyId",
          "type": "uint256"
        },
        {
          "indexed": true,
          "internalType": "address",
          "name": "investor",
          "type": "address"
        }
      ],
      "name": "PolicyPurchased",
      "type": "event"
    },
    {
      "anonymous": false,
      "inputs": [
        {
          "indexed": true,
          "internalType": "address",
          "name": "pool",
          "type": "address"
        }
      ],
      "name": "PremiumPoolSet",
      "type": "event"
    },
    {
      "anonymous": false,
      "inputs": [
        {
          "indexed": true,
          "internalType": "bytes32",
          "name": "role",
          "type": "bytes32"
        },
        {
          "indexed": true,
          "internalType": "bytes32",
          "name": "previousAdminRole",
          "type": "bytes32"
        },
        {
          "indexed": true,
          "internalType": "bytes32",
          "name": "newAdminRole",
          "type": "bytes32"
        }
      ],
      "name": "RoleAdminChanged",
      "type": "event"
    },
    {
      "anonymous": false,
      "inputs": [
        {
          "indexed": true,
          "internalType": "bytes32",
          "name": "role",
          "type": "bytes32"
        },
        {
          "indexed": true,
          "internalType": "address",
          "name": "account",
          "type": "address"
        },
        {
          "indexed": true,
          "internalType": "address",
          "name": "sender",
          "type": "address"
        }
      ],
      "name": "RoleGranted",
      "type": "event"
    },
    {
      "anonymous": false,
      "inputs": [
        {
          "indexed": true,
          "internalType": "bytes32",
          "name": "role",
          "type": "bytes32"
        },
        {
          "indexed": true,
          "internalType": "address",
          "name": "account",
          "type": "address"
        },
        {
          "indexed": true,
          "internalType": "address",
          "name": "sender",
          "type": "address"
        }
      ],
      "name": "RoleRevoked",
      "type": "event"
    },
    {
      "inputs": [],
      "name": "ADMIN_ROLE",
      "outputs": [
        {
          "internalType": "bytes32",
          "name": "",
          "type": "bytes32"
        }
      ],
      "stateMutability": "view",
      "type": "function"
    },
    {
      "inputs": [],
      "name": "DEFAULT_ADMIN_ROLE",
      "outputs": [
        {
          "internalType": "bytes32",
          "name": "",
          "type": "bytes32"
        }
      ],
      "stateMutability": "view",
      "type": "function"
    },
    {
      "inputs": [],
      "name": "INSURER_ROLE",
      "outputs": [
        {
          "internalType": "bytes32",
          "name": "",
          "type": "bytes32"
        }
      ],
      "stateMutability": "view",
      "type": "function"
    },
    {
      "inputs": [
        {
          "internalType": "address",
          "name": "investor",
          "type": "address"
        },
        {
          "internalType": "uint256",
          "name": "coverageAmount",
          "type": "uint256"
        },
        {
          "internalType": "uint256",
          "name": "premiumAmount",
          "type": "uint256"
        },
        {
          "internalType": "uint256",
          "name": "triggerThresholdBps",
          "type": "uint256"
        },
        {
          "internalType": "string",
          "name": "triggerType",
          "type": "string"
        }
      ],
      "name": "createPolicy",
      "outputs": [
        {
          "internalType": "uint256",
          "name": "",
          "type": "uint256"
        }
      ],
      "stateMutability": "nonpayable",
      "type": "function"
    },
    {
      "inputs": [
        {
          "internalType": "address",
          "name": "investor",
          "type": "address"
        }
      ],
      "name": "getPoliciesByInvestor",
      "outputs": [
        {
          "internalType": "uint256[]",
          "name": "",
          "type": "uint256[]"
        }
      ],
      "stateMutability": "view",
      "type": "function"
    },
    {
      "inputs": [
        {
          "internalType": "uint256",
          "name": "policyId",
          "type": "uint256"
        }
      ],
      "name": "getPolicy",
      "outputs": [
        {
          "components": [
            {
              "internalType": "uint256",
              "name": "id",
              "type": "uint256"
            },
            {
              "internalType": "address",
              "name": "investor",
              "type": "address"
            },
            {
              "internalType": "uint256",
              "name": "coverageAmount",
              "type": "uint256"
            },
            {
              "internalType": "uint256",
              "name": "premiumAmount",
              "type": "uint256"
            },
            {
              "internalType": "uint256",
              "name": "triggerThresholdBps",
              "type": "uint256"
            },
            {
              "internalType": "bool",
              "name": "active",
              "type": "bool"
            },
            {
              "internalType": "bool",
              "name": "paidOut",
              "type": "bool"
            },
            {
              "internalType": "string",
              "name": "triggerType",
              "type": "string"
            }
          ],
          "internalType": "struct IPolicyRegistry.Policy",
          "name": "",
          "type": "tuple"
        }
      ],
      "stateMutability": "view",
      "type": "function"
    },
    {
      "inputs": [],
      "name": "getPolicyCount",
      "outputs": [
        {
          "internalType": "uint256",
          "name": "",
          "type": "uint256"
        }
      ],
      "stateMutability": "view",
      "type": "function"
    },
    {
      "inputs": [
        {
          "internalType": "bytes32",
          "name": "role",
          "type": "bytes32"
        }
      ],
      "name": "getRoleAdmin",
      "outputs": [
        {
          "internalType": "bytes32",
          "name": "",
          "type": "bytes32"
        }
      ],
      "stateMutability": "view",
      "type": "function"
    },
    {
      "inputs": [
        {
          "internalType": "bytes32",
          "name": "role",
          "type": "bytes32"
        },
        {
          "internalType": "address",
          "name": "account",
          "type": "address"
        }
      ],
      "name": "grantRole",
      "outputs": [],
      "stateMutability": "nonpayable",
      "type": "function"
    },
    {
      "inputs": [
        {
          "internalType": "bytes32",
          "name": "role",
          "type": "bytes32"
        },
        {
          "internalType": "address",
          "name": "account",
          "type": "address"
        }
      ],
      "name": "hasRole",
      "outputs": [
        {
          "internalType": "bool",
          "name": "",
          "type": "bool"
        }
      ],
      "stateMutability": "view",
      "type": "function"
    },
    {
      "inputs": [
        {
          "internalType": "uint256",
          "name": "policyId",
          "type": "uint256"
        }
      ],
      "name": "markPaidOut",
      "outputs": [],
      "stateMutability": "nonpayable",
      "type": "function"
    },
    {
      "inputs": [],
      "name": "premiumPool",
      "outputs": [
        {
          "internalType": "address",
          "name": "",
          "type": "address"
        }
      ],
      "stateMutability": "view",
      "type": "function"
    },
    {
      "inputs": [
        {
          "internalType": "uint256",
          "name": "policyId",
          "type": "uint256"
        }
      ],
      "name": "purchasePolicy",
      "outputs": [],
      "stateMutability": "nonpayable",
      "type": "function"
    },
    {
      "inputs": [
        {
          "internalType": "bytes32",
          "name": "role",
          "type": "bytes32"
        },
        {
          "internalType": "address",
          "name": "callerConfirmation",
          "type": "address"
        }
      ],
      "name": "renounceRole",
      "outputs": [],
      "stateMutability": "nonpayable",
      "type": "function"
    },
    {
      "inputs": [
        {
          "internalType": "bytes32",
          "name": "role",
          "type": "bytes32"
        },
        {
          "internalType": "address",
          "name": "account",
          "type": "address"
        }
      ],
      "name": "revokeRole",
      "outputs": [],
      "stateMutability": "nonpayable",
      "type": "function"
    },
    {
      "inputs": [
        {
          "internalType": "address",
          "name": "pool",
          "type": "address"
        }
      ],
      "name": "setPremiumPool",
      "outputs": [],
      "stateMutability": "nonpayable",
      "type": "function"
    },
    {
      "inputs": [],
      "name": "stablecoin",
      "outputs": [
        {
          "internalType": "contract IERC20",
          "name": "",
          "type": "address"
        }
      ],
      "stateMutability": "view",
      "type": "function"
    },
    {
      "inputs": [
        {
          "internalType": "bytes4",
          "name": "interfaceId",
          "type": "bytes4"
        }
      ],
      "name": "supportsInterface",
      "outputs": [
        {
          "internalType": "bool",
          "name": "",
          "type": "bool"
        }
      ],
      "stateMutability": "view",
      "type": "function"
    }
  ],
  "bytecode": "0x60a06040523480156200001157600080fd5b506040516200157638038062001576833981016040819052620000349162000183565b60017f9b779b17422d0df92223018b32b4d1fa46e071723d6817e2486d003becc55f00556001600160a01b03811660805262000072600033620000d4565b506200009f7fa49807205ce4d355092ef5a8a18f56e8913cf4a201fbe287825b095693c2177533620000d4565b50620000cc7feb0a07781e3ee843c0d85f7381c2e1a1e1a6ea86bcdcd944ef649d46e7dcd97233620000d4565b5050620001b5565b6000828152602081815260408083206001600160a01b038516845290915281205460ff1662000179576000838152602081815260408083206001600160a01b03861684529091529020805460ff19166001179055620001303390565b6001600160a01b0316826001600160a01b0316847f2f8788117e7eff1d82e926ec794901d17c78024a50270940304540a733656f0d60405160405180910390a45060016200017d565b5060005b92915050565b6000602082840312156200019657600080fd5b81516001600160a01b0381168114620001ae57600080fd5b9392505050565b60805161139e620001d8600039600081816102dc0152610b0c015261139e6000f3fe608060405234801561001057600080fd5b50600436106101165760003560e01c806375b238fc116100a2578063c1260c9a11610071578063c1260c9a14610289578063d547741f1461029c578063e59771d2146102af578063e8cc35e8146102b7578063e9cbd822146102d757600080fd5b806375b238fc14610234578063798218ef1461025b57806391d148541461026e578063a217fddf1461028157600080fd5b80632b07fce3116100e95780632b07fce3146101b05780632f2ff15d146101d057806336568abe146101e35780634681fdd2146101f65780634ba69faa1461020957600080fd5b806301ffc9a71461011b578063056c9989146101435780631bcc247214610178578063248a9ca31461018d575b600080fd5b61012e610129366004610f03565b6102fe565b60405190151581526020015b60405180910390f35b61016a7feb0a07781e3ee843c0d85f7381c2e1a1e1a6ea86bcdcd944ef649d46e7dcd97281565b60405190815260200161013a565b61018b610186366004610f50565b610335565b005b61016a61019b366004610f6b565b60009081526020819052604090206001015490565b6101c36101be366004610f6b565b6103f4565b60405161013a9190610fca565b61018b6101de366004611049565b610584565b61018b6101f1366004611049565b6105af565b61018b610204366004610f6b565b6105e7565b60015461021c906001600160a01b031681565b6040516001600160a01b03909116815260200161013a565b61016a7fa49807205ce4d355092ef5a8a18f56e8913cf4a201fbe287825b095693c2177581565b61016a610269366004611075565b6106e3565b61012e61027c366004611049565b61099f565b61016a600081565b61018b610297366004610f6b565b6109c8565b61018b6102aa366004611049565b610cbc565b60025461016a565b6102ca6102c5366004610f50565b610ce1565b60405161013a9190611114565b61021c7f000000000000000000000000000000000000000000000000000000000000000081565b60006001600160e01b03198216637965db0b60e01b148061032f57506301ffc9a760e01b6001600160e01b03198316145b92915050565b7feb0a07781e3ee843c0d85f7381c2e1a1e1a6ea86bcdcd944ef649d46e7dcd97261035f81610d4d565b6001600160a01b0382166103a95760405162461bcd60e51b815260206004820152600c60248201526b1a5b9d985b1a59081c1bdbdb60a21b60448201526064015b60405180910390fd5b600180546001600160a01b0319166001600160a01b0384169081179091556040517f813880fcd868c39e59e8569e0427cba6028abc92d8974c78ec46d5313baba00590600090a25050565b6104496040518061010001604052806000815260200160006001600160a01b03168152602001600081526020016000815260200160008152602001600015158152602001600015158152602001606081525090565b60008281526003602052604081205490036104765760405162461bcd60e51b81526004016103a090611158565b600082815260036020818152604092839020835161010080820186528254825260018301546001600160a01b03169382019390935260028201549481019490945291820154606084015260048201546080840152600582015460ff808216151560a086015291900416151560c083015260068101805460e0840191906104fb90611182565b80601f016020809104026020016040519081016040528092919081815260200182805461052790611182565b80156105745780601f1061054957610100808354040283529160200191610574565b820191906000526020600020905b81548152906001019060200180831161055757829003601f168201915b5050505050815250509050919050565b60008281526020819052604090206001015461059f81610d4d565b6105a98383610d57565b50505050565b6001600160a01b03811633146105d85760405163334bd91960e11b815260040160405180910390fd5b6105e28282610de9565b505050565b7fa49807205ce4d355092ef5a8a18f56e8913cf4a201fbe287825b095693c2177561061181610d4d565b600082815260036020526040812080549091036106405760405162461bcd60e51b81526004016103a090611158565b600581015460ff166106865760405162461bcd60e51b815260206004820152600f60248201526e706f6c69637920696e61637469766560881b60448201526064016103a0565b6005810154610100900460ff16156106cf5760405162461bcd60e51b815260206004820152600c60248201526b185b1c9958591e481c185a5960a21b60448201526064016103a0565b600501805461ff0019166101001790555050565b60007feb0a07781e3ee843c0d85f7381c2e1a1e1a6ea86bcdcd944ef649d46e7dcd97261070f81610d4d565b6001600160a01b0388166107545760405162461bcd60e51b815260206004820152600c60248201526b3130b21034b73b32b9ba37b960a11b60448201526064016103a0565b600087116107935760405162461bcd60e51b815260206004820152600c60248201526b62616420636f76657261676560a01b60448201526064016103a0565b600086116107d15760405162461bcd60e51b815260206004820152600b60248201526a626164207072656d69756d60a81b60448201526064016103a0565b600085116108115760405162461bcd60e51b815260206004820152600d60248201526c189859081d1a1c995cda1bdb19609a1b60448201526064016103a0565b60028054906000610821836111bc565b9190505550600060025490506040518061010001604052808281526020018a6001600160a01b0316815260200189815260200188815260200187815260200160001515815260200160001515815260200186868080601f01602080910402602001604051908101604052809392919081815260200183838082843760009201829052509390945250508381526003602081815260409283902085518155908501516001820180546001600160a01b039092166001600160a01b03199092169190911790559184015160028301556060840151908201556080830151600482015560a083015160058201805460c086015115156101000261ff00199315159390931661ffff199091161791909117905560e083015190915060068201906109479082611249565b50905050886001600160a01b0316817fb125fde4284254e7f0e5b0b580e3d0b4edeb74741bbc94196386f1a56d9c9ca48a8a898960405161098b9493929190611309565b60405180910390a398975050505050505050565b6000918252602082815260408084206001600160a01b0393909316845291905290205460ff1690565b6109d0610e54565b600081815260036020526040812080549091036109ff5760405162461bcd60e51b81526004016103a090611158565b60018101546001600160a01b03163314610a4a5760405162461bcd60e51b815260206004820152600c60248201526b3737ba1034b73b32b9ba37b960a11b60448201526064016103a0565b600581015460ff1615610a905760405162461bcd60e51b815260206004820152600e60248201526d616c72656164792061637469766560901b60448201526064016103a0565b6001546001600160a01b0316610ad75760405162461bcd60e51b815260206004820152600c60248201526b1c1bdbdb081b9bdd081cd95d60a21b60448201526064016103a0565b60015460038201546040516323b872dd60e01b81523360048201526001600160a01b03928316602482015260448101919091527f0000000000000000000000000000000000000000000000000000000000000000909116906323b872dd906064016020604051808303816000875af1158015610b57573d6000803e3d6000fd5b505050506040513d601f19601f82011682018060405250810190610b7b9190611346565b610bc75760405162461bcd60e51b815260206004820152601760248201527f7072656d69756d207472616e73666572206661696c656400000000000000000060448201526064016103a0565b6001546003820154604051631898d1d960e21b81526001600160a01b0390921691636263476491610bfe9160040190815260200190565b600060405180830381600087803b158015610c1857600080fd5b505af1158015610c2c573d6000803e3d6000fd5b50505060058201805460ff19166001908117909155336000818152600460209081526040808320805495860181558352908220909301869055915190925084917f60d59b58b916d11d0ac52c397e342e25ae6dc5da412115d469d304bf4dd8640491a350610cb960017f9b779b17422d0df92223018b32b4d1fa46e071723d6817e2486d003becc55f0055565b50565b600082815260208190526040902060010154610cd781610d4d565b6105a98383610de9565b6001600160a01b038116600090815260046020908152604091829020805483518184028101840190945280845260609392830182828015610d4157602002820191906000526020600020905b815481526020019060010190808311610d2d575b50505050509050919050565b610cb98133610e82565b6000610d63838361099f565b610de1576000838152602081815260408083206001600160a01b03861684529091529020805460ff19166001179055610d993390565b6001600160a01b0316826001600160a01b0316847f2f8788117e7eff1d82e926ec794901d17c78024a50270940304540a733656f0d60405160405180910390a450600161032f565b50600061032f565b6000610df5838361099f565b15610de1576000838152602081815260408083206001600160a01b0386168085529252808320805460ff1916905551339286917ff6391f5c32d9c69d2a47ea670b442974b53935d1edc7fd64eb21e047a839171b9190a450600161032f565b610e5c610ebf565b60027f9b779b17422d0df92223018b32b4d1fa46e071723d6817e2486d003becc55f0055565b610e8c828261099f565b610ebb5760405163e2517d3f60e01b81526001600160a01b0382166004820152602481018390526044016103a0565b5050565b7f9b779b17422d0df92223018b32b4d1fa46e071723d6817e2486d003becc55f0054600203610f0157604051633ee5aeb560e01b815260040160405180910390fd5b565b600060208284031215610f1557600080fd5b81356001600160e01b031981168114610f2d57600080fd5b9392505050565b80356001600160a01b0381168114610f4b57600080fd5b919050565b600060208284031215610f6257600080fd5b610f2d82610f34565b600060208284031215610f7d57600080fd5b5035919050565b6000815180845260005b81811015610faa57602081850181015186830182015201610f8e565b506000602082860101526020601f19601f83011685010191505092915050565b602081528151602082015260018060a01b0360208301511660408201526040820151606082015260608201516080820152608082015160a082015260a0820151151560c0820152600060c083015161102660e084018215159052565b5060e083015161010083810152611041610120840182610f84565b949350505050565b6000806040838503121561105c57600080fd5b8235915061106c60208401610f34565b90509250929050565b60008060008060008060a0878903121561108e57600080fd5b61109787610f34565b9550602087013594506040870135935060608701359250608087013567ffffffffffffffff808211156110c957600080fd5b818901915089601f8301126110dd57600080fd5b8135818111156110ec57600080fd5b8a60208285010111156110fe57600080fd5b6020830194508093505050509295509295509295565b6020808252825182820181905260009190848201906040850190845b8181101561114c57835183529284019291840191600101611130565b50909695505050505050565b60208082526010908201526f1c1bdb1a58de481b9bdd08199bdd5b9960821b604082015260600190565b600181811c9082168061119657607f821691505b6020821081036111b657634e487b7160e01b600052602260045260246000fd5b50919050565b6000600182016111dc57634e487b7160e01b600052601160045260246000fd5b5060010190565b634e487b7160e01b600052604160045260246000fd5b601f8211156105e2576000816000526020600020601f850160051c810160208610156112225750805b601f850160051c820191505b818110156112415782815560010161122e565b505050505050565b815167ffffffffffffffff811115611263576112636111e3565b611277816112718454611182565b846111f9565b602080601f8311600181146112ac57600084156112945750858301515b600019600386901b1c1916600185901b178555611241565b600085815260208120601f198616915b828110156112db578886015182559484019460019091019084016112bc565b50858210156112f95787850151600019600388901b60f8161c191681555b5050505050600190811b01905550565b84815283602082015260606040820152816060820152818360808301376000818301608090810191909152601f909201601f191601019392505050565b60006020828403121561135857600080fd5b81518015158114610f2d57600080fdfea264697066735822122095e9b03be402af789c2d0c5bd0a53166f1fa4445d103806e701ab0c4cf2c3f0d64736f6c63430008180033",
  "linkReferences": {},
  "deployedLinkReferences": {}
}