{
  "_format": "hh-sol-artifact-1",
  "contractName": "TriggerOracle",
  "sourceName": "contracts/TriggerOracle.sol",
  "abi": [
    {
      "inputs": [
        {
          "internalType": "address",
          "name": "registryAddress",
          "type": "address"
        },
        {
          "internalType": "address",
          "name": "poolAddress",
          "type": "address"
        }
      ],
      "stateMutability": "nonpayable",
      "type": "constructor"
    },
    {
      "inputs": [],
      "name": "AccessControlBadConfirmation",
      "type": "error"
    },
    {
      "inputs": [
        {
          "internalType": "address",
          "name": "account",
          "type": "address"
        },
        {
          "internalType": "bytes32",
          "name": "neededRole",
          "type": "bytes32"
        }
      ],
      "name": "AccessControlUnauthorizedAccount",
      "type": "error"
    },
    {
      "anonymous": false,
      "inputs": [
        {
          "indexed": true,
          "internalType": "bytes32",
          "name": "role",
          "type": "bytes32"
        },
        {
          "indexed": true,
          "internalType": "bytes32",
          "name": "previousAdminRole",
          "type": "bytes32"
        },
        {
          "indexed": true,
          "internalType": "bytes32",
          "name": "newAdminRole",
          "type": "bytes32"
        }
      ],
      "name": "RoleAdminChanged",
      "type": "event"
    },
    {
      "anonymous": false,
      "inputs": [
        {
          "indexed": true,
          "internalType": "bytes32",
          "name": "role",
          "type": "bytes32"
        },
        {
          "indexed": true,
          "internalType": "address",
          "name": "account",
          "type": "address"
        },
        {
          "indexed": true,
          "internalType": "address",
          "name": "sender",
          "type": "address"
        }
      ],
      "name": "RoleGranted",
      "type": "event"
    },
    {
      "anonymous": false,
      "inputs": [
        {
          "indexed": true,
          "internalType": "bytes32",
          "name": "role",
          "type": "bytes32"
        },
        {
          "indexed": true,
          "internalType": "address",
          "name": "account",
          "type": "address"
        },
        {
          "indexed": true,
          "internalType": "address",
          "name": "sender",
          "type": "address"
        }
      ],
      "name": "RoleRevoked",
      "type": "event"
    },
    {
      "anonymous": false,
      "inputs": [
        {
          "indexed": true,
          "internalType": "uint256",
          "name": "policyId",
          "type": "uint256"
        },
        {
          "indexed": false,
          "internalType": "string",
          "name": "triggerType",
          "type": "string"
        },
        {
          "indexed": false,
          "internalType": "int256",
          "name": "triggerValue",
          "type": "int256"
        }
      ],
      "name": "TriggerSubmitted",
      "type": "event"
    },
    {
      "inputs": [],
      "name": "ADMIN_ROLE",
      "outputs": [
        {
          "internalType": "bytes32",
          "name": "",
          "type": "bytes32"
        }
      ],
      "stateMutability": "view",
      "type": "function"
    },
    {
      "inputs": [],
      "name": "DEFAULT_ADMIN_ROLE",
      "outputs": [
        {
          "internalType": "bytes32",
          "name": "",
          "type": "bytes32"
        }
      ],
      "stateMutability": "view",
      "type": "function"
    },
    {
      "inputs": [],
      "name": "ORACLE_ROLE",
      "outputs": [
        {
          "internalType": "bytes32",
          "name": "",
          "type": "bytes32"
        }
      ],
      "stateMutability": "view",
      "type": "function"
    },
    {
      "inputs": [
        {
          "internalType": "bytes32",
          "name": "role",
          "type": "bytes32"
        }
      ],
      "name": "getRoleAdmin",
      "outputs": [
        {
          "internalType": "bytes32",
          "name": "",
          "type": "bytes32"
        }
      ],
      "stateMutability": "view",
      "type": "function"
    },
    {
      "inputs": [
        {
          "internalType": "bytes32",
          "name": "role",
          "type": "bytes32"
        },
        {
          "internalType": "address",
          "name": "account",
          "type": "address"
        }
      ],
      "name": "grantRole",
      "outputs": [],
      "stateMutability": "nonpayable",
      "type": "function"
    },
    {
      "inputs": [
        {
          "internalType": "bytes32",
          "name": "role",
          "type": "bytes32"
        },
        {
          "internalType": "address",
          "name": "account",
          "type": "address"
        }
      ],
      "name": "hasRole",
      "outputs": [
        {
          "internalType": "bool",
          "name": "",
          "type": "bool"
        }
      ],
      "stateMutability": "view",
      "type": "function"
    },
    {
      "inputs": [],
      "name": "pool",
      "outputs": [
        {
          "internalType": "contract PremiumPool",
          "name": "",
          "type": "address"
        }
      ],
      "stateMutability": "view",
      "type": "function"
    },
    {
      "inputs": [],
      "name": "registry",
      "outputs": [
        {
          "internalType": "contract PolicyRegistry",
          "name": "",
          "type": "address"
        }
      ],
      "stateMutability": "view",
      "type": "function"
    },
    {
      "inputs": [
        {
          "internalType": "bytes32",
          "name": "role",
          "type": "bytes32"
        },
        {
          "internalType": "address",
          "name": "callerConfirmation",
          "type": "address"
        }
      ],
      "name": "renounceRole",
      "outputs": [],
      "stateMutability": "nonpayable",
      "type": "function"
    },
    {
      "inputs": [
        {
          "internalType": "bytes32",
          "name": "role",
          "type": "bytes32"
        },
        {
          "internalType": "address",
          "name": "account",
          "type": "address"
        }
      ],
      "name": "revokeRole",
      "outputs": [],
      "stateMutability": "nonpayable",
      "type": "function"
    },
    {
      "inputs": [
        {
          "internalType": "uint256",
          "name": "policyId",
          "type": "uint256"
        },
        {
          "internalType": "string",
          "name": "triggerType",
          "type": "string"
        },
        {
          "internalType": "int256",
          "name": "triggerValue",
          "type": "int256"
        }
      ],
      "name": "submitTrigger",
      "outputs": [],
      "stateMutability": "nonpayable",
      "type": "function"
    },
    {
      "inputs": [
        {
          "internalType": "bytes4",
          "name": "interfaceId",
          "type": "bytes4"
        }
      ],
      "name": "supportsInterface",
      "outputs": [
        {
          "internalType": "bool",
          "name": "",
          "type": "bool"
        }
      ],
      "stateMutability": "view",
      "type": "function"
    }
  ],
  "bytecode": "0x608060405234801561001057600080fd5b50604051610ad2380380610ad283398101604081905261002f91610190565b600180546001600160a01b038085166001600160a01b031992831617909255600280549284169290911691909117905561006a6000336100c8565b506100957fa49807205ce4d355092ef5a8a18f56e8913cf4a201fbe287825b095693c21775336100c8565b506100c07f68e79a7bf1e0bc45d0a330c573bc367f9cf464fd326078812f301165fbda4ef1336100c8565b5050506101c3565b6000828152602081815260408083206001600160a01b038516845290915281205460ff1661016a576000838152602081815260408083206001600160a01b03861684529091529020805460ff191660011790556101223390565b6001600160a01b0316826001600160a01b0316847f2f8788117e7eff1d82e926ec794901d17c78024a50270940304540a733656f0d60405160405180910390a450600161016e565b5060005b92915050565b80516001600160a01b038116811461018b57600080fd5b919050565b600080604083850312156101a357600080fd5b6101ac83610174565b91506101ba60208401610174565b90509250929050565b610900806101d26000396000f3fe608060405234801561001057600080fd5b50600436106100b45760003560e01c806336568abe1161007157806336568abe1461018c57806375b238fc1461019f5780637b103999146101c657806391d14854146101d9578063a217fddf146101ec578063d547741f146101f457600080fd5b806301ffc9a7146100b9578063058b46f9146100e157806307e2cea5146100f657806316f0115b1461012b578063248a9ca3146101565780632f2ff15d14610179575b600080fd5b6100cc6100c73660046105a1565b610207565b60405190151581526020015b60405180910390f35b6100f46100ef3660046105d2565b61023e565b005b61011d7f68e79a7bf1e0bc45d0a330c573bc367f9cf464fd326078812f301165fbda4ef181565b6040519081526020016100d8565b60025461013e906001600160a01b031681565b6040516001600160a01b0390911681526020016100d8565b61011d610164366004610654565b60009081526020819052604090206001015490565b6100f4610187366004610682565b6103a9565b6100f461019a366004610682565b6103d4565b61011d7fa49807205ce4d355092ef5a8a18f56e8913cf4a201fbe287825b095693c2177581565b60015461013e906001600160a01b031681565b6100cc6101e7366004610682565b61040c565b61011d600081565b6100f4610202366004610682565b610435565b60006001600160e01b03198216637965db0b60e01b148061023857506301ffc9a760e01b6001600160e01b03198316145b92915050565b7fa49807205ce4d355092ef5a8a18f56e8913cf4a201fbe287825b095693c217756102688161045a565b600154604051632b07fce360e01b8152600481018790526000916001600160a01b031690632b07fce390602401600060405180830381865afa1580156102b2573d6000803e3d6000fd5b505050506040513d6000823e601f3d908101601f191682016040526102da91908101906107c8565b90508060a001516103245760405162461bcd60e51b815260206004820152600f60248201526e706f6c69637920696e61637469766560881b60448201526064015b60405180910390fd5b8060c00151156103655760405162461bcd60e51b815260206004820152600c60248201526b185b1c9958591e481c185a5960a21b604482015260640161031b565b857fe479e1fb12eda482b3e9bb83737348cade776ac930837153e8dc56037043098a86868660405161039993929190610891565b60405180910390a2505050505050565b6000828152602081905260409020600101546103c48161045a565b6103ce8383610467565b50505050565b6001600160a01b03811633146103fd5760405163334bd91960e11b815260040160405180910390fd5b61040782826104f9565b505050565b6000918252602082815260408084206001600160a01b0393909316845291905290205460ff1690565b6000828152602081905260409020600101546104508161045a565b6103ce83836104f9565b6104648133610564565b50565b6000610473838361040c565b6104f1576000838152602081815260408083206001600160a01b03861684529091529020805460ff191660011790556104a93390565b6001600160a01b0316826001600160a01b0316847f2f8788117e7eff1d82e926ec794901d17c78024a50270940304540a733656f0d60405160405180910390a4506001610238565b506000610238565b6000610505838361040c565b156104f1576000838152602081815260408083206001600160a01b0386168085529252808320805460ff1916905551339286917ff6391f5c32d9c69d2a47ea670b442974b53935d1edc7fd64eb21e047a839171b9190a4506001610238565b61056e828261040c565b61059d5760405163e2517d3f60e01b81526001600160a01b03821660048201526024810183905260440161031b565b5050565b6000602082840312156105b357600080fd5b81356001600160e01b0319811681146105cb57600080fd5b9392505050565b600080600080606085870312156105e857600080fd5b84359350602085013567ffffffffffffffff8082111561060757600080fd5b818701915087601f83011261061b57600080fd5b81358181111561062a57600080fd5b88602082850101111561063c57600080fd5b95986020929092019750949560400135945092505050565b60006020828403121561066657600080fd5b5035919050565b6001600160a01b038116811461046457600080fd5b6000806040838503121561069557600080fd5b8235915060208301356106a78161066d565b809150509250929050565b634e487b7160e01b600052604160045260246000fd5b604051610100810167ffffffffffffffff811182821017156106ec576106ec6106b2565b60405290565b604051601f8201601f1916810167ffffffffffffffff8111828210171561071b5761071b6106b2565b604052919050565b805161072e8161066d565b919050565b8051801515811461072e57600080fd5b600082601f83011261075457600080fd5b815167ffffffffffffffff81111561076e5761076e6106b2565b6020610782601f8301601f191682016106f2565b828152858284870101111561079657600080fd5b60005b838110156107b4578581018301518282018401528201610799565b506000928101909101919091529392505050565b6000602082840312156107da57600080fd5b815167ffffffffffffffff808211156107f257600080fd5b90830190610100828603121561080757600080fd5b61080f6106c8565b8251815261081f60208401610723565b602082015260408301516040820152606083015160608201526080830151608082015261084e60a08401610733565b60a082015261085f60c08401610733565b60c082015260e08301518281111561087657600080fd5b61088287828601610743565b60e08301525095945050505050565b604081528260408201528284606083013760006060848301015260006060601f19601f860116830101905082602083015294935050505056fea2646970667358221220d146fa684497fb0e9100d4d8381b09d681c76425fdbd3308716b97fd3998df7064736f6c63430008180033",
  "linkReferences": {},
  "deployedLinkReferences": {}
}